:020000022000DC
:1060000080FF0020F5A6040021A7040015C70300A7
:106010001DA7040029A704002DA70400000000000C
:10602000000000000000000000000000A96F030055
:1060300035A7040000000000496F030025A70400F5
:1060400091D304003DA704003DF204005DEC040080
:106050006DEC04003DA7040011CC0400D5E404005D
:106060003DA704003DA704003DA704003DA7040090
:106070003DA704003DA704003DA704003DA7040080
:10608000B5B20400494A04003DA704003DA704003E
:106090003DA704003DA7040091CD03003DA70400E7
:1060A0003DA704003DA704003DA704003DA7040050
:1060B0003DA704003DA70400000000000000000010
:1060C0003DA704003DA704003DA7040059CE0400ED
:1060D0003DA704003DA7040049C7030000000000DD
:1060E00000000000000000000000000000000000B0
:1060F00000000000000000000000000000000000A0
:10610000000000000000000000000000000000008F
:10611000000000000000000000000000000000007F
:10612000000000000000000000000000000000006F
:10613000000000000000000000000000000000005F
:10614000000000000000000000000000000000004F
:10615000000000000000000000000000000000003F
:10616000000000000000000000000000000000002F
:10617000000000000000000000000000000000001F
:10618000000000000000000000000000000000000F
:1061900000000000000000000000000000000000FF
:1061A00000000000000000000000000000000000EF
:1061B00000000000000000000000000000000000DF
:1061C00000000000000000000000000000000000CF
:1061D00000000000000000000000000000000000BF
:1061E00000000000000000000000000000000000AF
:1061F000000000000000000000000000000000009F
:1062000010B5054C237833B9044B13B10448AFF3F0
:1062100000800123237010BDD82B00200000000057
:106220008864060008B5034B1BB103490348AFF36C
:10623000008008BD00000000DC2B00208864060000
:10624000154B002B08BF134B9D46A3F5803A002148
:106250008B460F461348144A121A2CF09FFE0F4B20
:10626000002B00D098470E4B002B00D09847002001
:10627000002104000D000D48002802D00C482CF02D
:10628000E2FB2CF0B1FC2000290020F0C5F92CF035
:10629000E7FB00BF0000080080FF002000000000B6
:1062A00000000000D82B0020F0FA0020472A05004B
:1062B0000000000080B582B000AF7860054A7B68BE
:1062C0001360054B1B68184624F0D0FF0837BD4605
:1062D00080BD00BF6C2D0020782C002090B593B0BD
:1062E00002AFBA607B600346FB810B46BB815F4B0C
:1062F0001B7883F00103DBB2002B04D040F237118E
:106300005B4801F025FE7B685A4A934204D05A4B01
:106310001B68184624F0A0FF584A7B681360BB89AD
:106320005F2B04D940F23F11514801F011FE0023C8
:106330003B620023FB610023BB6107F1180307F1F7
:106340001C0207F12001F88916F0A4FDB98907F1B4
:106350001002FB89184607F0D2FE7863BB897A6B7E
:1063600013443B63BB69396B184616F07DFD034649
:1063700087F82F3097F82F3083F00103DBB2002B22
:1063800010D07B6B99B2BC8907F11002F889BB6809
:106390000093234616F0AEFD39494FF4FA2007F07A
:1063A000F1FA5DE0BB699BB203F00303BB857B6B35
:1063B0009AB2BB8913449AB2BB8D13449BB2033388
:1063C0009BB223F003037B850023FB63BB8DFA6B39
:1063D0009A4208D22B4AFB6B1344FF221A70FB6BC4
:1063E0000133FB63F2E7BB8D264A134407F110012A
:1063F0007A6B18462CF0AAFDBA8D7B6B1344214AA8
:106400001344BA89B96818462CF0A0FD0023BB6379
:10641000BB6B032B0DD8BA8D7B6B1A44BB891A4416
:10642000BB6B1344174AFF21D154BB6B0133BB63D1
:10643000EEE7F989B889BB69BA68127801920093CE
:1064400003460A461049012020F066F8BB6923F094
:1064500003037B627A8D0D4B0A49786A07F0C8FA0C
:10646000012318464437BD4690BD00BF802C002054
:10647000A8520500B56202007C2C0020742C00207C
:106480009DBB0300F42B0020B852050001BC0300A3
:1064900080B584B000AF03463A60FB800B46BB80FA
:1064A000344B1B7883F00103DBB2002B04D04FF494
:1064B000B771314801F04CFD304B1B68184624F091
:1064C000CBFE2F4B1B680021184624F0B9FE034673
:1064D00083F00103DBB2002B04D040F27311264895
:1064E00001F036FDB988F888264B3A68FFF7F6FECA
:1064F0000346FB73FB7B83F00103DBB2002B05D06B
:106500002149012020F008F800232EE01C4B1B68D5
:1065100040F6B831184624F093FE0346BB73BB7BAC
:1065200083F00103DBB2002B08D0184901201FF0D3
:10653000F3FF4FF4C171104801F00AFD144B1B68C2
:10654000BB600F4B1B68184624F090FEBB68002B05
:1065500005D0FA88BB680F4901201FF0DDFFBB683A
:10656000002B0CBF01230023DBB218461037BD46B9
:1065700080BD00BF802C0020A85205007C2C00208C
:10658000782C0020B5620200F0520500145305007B
:106590006C2D00204453050001482CF0E8BE00BFDC
:1065A000735305002DE97047E3B00DF1080ADDF8DB
:1065B000B0911C4680460D46164600214FF4C0722D
:1065C00050462CF0EBFCBDF8A811A4F13202404675
:1065D000CDE900A90623B2FBF3F36B9A09F004FAA4
:1065E0004B4622463146284601F0F1F863B0BDE83B
:1065F00070872DE97047C3B00DF1080ADDF83091BE
:106600001C4680460D46164600214FF480725046C7
:106610002CF0C4FCA4F132034B9ABDF8281140467B
:10662000CDE900A99B0808F0BFF94B462246314648
:10663000284601F0CCF843B0BDE8708710F8013B64
:10664000002BFBD17047000010B50021044602F07A
:1066500091F8074B23600023C4E9033323722375A9
:10666000044A0549182301201FF056FF204610BD9B
:1066700030BC05007C5305008D53050010B5034B5D
:106680000360044623F0A0FE204610BD30BC050088
:1066900010B50446FFF7F2FF20462BF053FD2046CD
:1066A00010BD0000014A0F2121F004B888B8050090
:1066B000014A0F2120F0C4BF88B805002DE97043BE
:1066C00092B000240DF12C09164605461C2288467E
:1066D000484621460C94ADF838400F942CF05EFCEF
:1066E0000C22214608A82CF059FC1BF0B7FB05AA88
:1066F000314619F0A6FFA8B108AB05AA31462846D5
:10670000CDF8009000F0E1FA494603A801F04CF9F9
:10671000284603ABC822414601F066FEC82012B0ED
:10672000BDE870834FF4CA70F9E72DE9704F9EB051
:1067300000240DF12008054691460E4618222146F8
:1067400040469A46ADF828400B94ADF830400D9481
:106750002CF024FC102221460DEB02000DF1380B29
:106760002CF01CFC2146402258462CF017FC9AF8CD
:1067700000308DF80830CDE900B804AB02AA4946D4
:10678000284600F0F5FAC828044609D1414602A877
:1067900001F010F902AB22463146284601F024FEF2
:1067A00020461EB0BDE8708F2DE9704F9EB00024CA
:1067B0000DF1200805468946164621461822404616
:1067C0009A46ADF828400B94ADF830400D942CF06B
:1067D000E5FB102221460DEB02000DF1380B2CF0E9
:1067E000DDFB2146402258462CF0D8FBCDE900B80D
:1067F00004AB52464946284600F00EFBC828044622
:1068000009D1414602A801F0D5F802AB2246314633
:10681000284601F0E9FD20461EB0BDE8708F00005B
:106820002DE970478DB08846154606461BF016FBCD
:106830008146406917F0A2FCD9F82CA0DAF80430A0
:106840000593B8F80630013B09F12C040E2B00F239
:10685000C881DFE813F00F00320045004F005E00F2
:1068600077009300C000E2000401250179015A017C
:10687000A001410100230993EB6808AA197830466A
:1068800000F0B8F9C828044609D108A906A801F003
:1068900085F806AB22464146304601F0A5FDD9F801
:1068A000140017F05FFCC82C04D022464146304645
:1068B00001F060FE0DB0BDE87087E9680DF11202CD
:1068C000304600F0B9F9C8280446E8D1BDF81230C6
:1068D000ADF8183006A908A810F092F808ABD9E76F
:1068E000284608F0A4F8414602463046FFF7E6FE87
:1068F0000446D4E7284608F09AF82946039008A8E9
:1069000008F08DF8039A08AB41463046FFF70DFFBB
:10691000EEE7284608F08BF82946044608A808F058
:106920007EF8EB6906AD1B780095214608AA304633
:1069300000F03EFAC8280446B1D1294608A801F063
:106940003FF8CBE7284608F078F858B90599039145
:10695000284608F06CF80399034642463046FFF794
:1069600023FFC5E7284608F065F805AA014620463A
:1069700019F071FDC828044691D1E7E76B68022B36
:1069800016D805990391284608F051F86B690399C8
:106990001B7806AD02460095304600F056FAC8282E
:1069A00004467FF47CAF294608A801F00FF895E76C
:1069B0002B8B0E2B01D8002BE3D005F1180021F012
:1069C000B2FC05AA0146204619F045FDC828044638
:1069D0007FF465AFD5E7284608F02FF880B9059910
:1069E0000391284608F023F80399024606AB304687
:1069F00000F053FAC82804467FF451AF06A9D3E744
:106A0000284608F017F805AA0146204619F023FD8C
:106A1000C82804467FF443AFE1E7284608F00DF8A4
:106A200080B905990391284608F001F803990246B8
:106A300006AB304600F045FAC82804467FF42FAF75
:106A400006A97BE7284607F0F5FF05AA0146204680
:106A500019F001FDC82804467FF421AFE1E728467C
:106A600007F0EBFF78B9EA680599127806AB304673
:106A700000F047FAC82804467FF411AF06A908A819
:106A800000F0AAFF2AE7284607F0D4FF05AA01462E
:106A9000204619F0E0FCC82804467FF400AFE2E786
:106AA000284607F0CAFF50B9284607F0C0FF059BEB
:106AB00002464146304600F046FAC824EFE6284632
:106AC00007F0B8FF05AA0146204619F0C4FCC82803
:106AD00004467FF4E4AEE7E7284607F0AEFF38B996
:106AE000EA6805990DF11203304600F0BBF8EAE6BA
:106AF000284607F09FFF05AA0146204619F0ABFC87
:106B0000C82804467FF4CBAEEAE7284607F095FF95
:106B100048B96868A0B90090059A43465146304686
:106B200000F0CAFDC9E7284607F084FF05AA014620
:106B3000204619F090FCC82804467FF4B0AEE8E780
:106B4000284607F074FFE6E7284607F076FFA8B965
:106B50000599039100232846079307F068FF0399DE
:106B6000024606AB304600F0DEF9C82804467FF442
:106B700096AE06A908A800F035FFAFE6284607F054
:106B800059FF05AA0146204619F065FCC8280446AD
:106B90007FF485AEDCE7514608A819F048FC0024D4
:106BA0004FF6FF7508A819F030FCA8420DD0089BDD
:106BB0005B685B689B68A34218BFC4EB441408A8D9
:106BC00018BFE41819F005FCECE72246074908A8AD
:106BD0002CF02AFB08ABC8224146304602F07EFC6E
:106BE0006BE703484FF4E07101F0B2F9A23D0600F3
:106BF0009D53050013B5144601911BF02FF901991F
:106C000019F064FDA0B190F8602003692270426E13
:106C100062609A782272DA7862721A79A2725A796C
:106C2000C2F38202A273DB88A381C82002B010BD28
:106C30004FF4CA70FAE7000010B586B0144603910D
:106C40001BF00CF9012300930399054B05AA1BF0D7
:106C50001FFDC82804BFBDF81630238006B010BD44
:106C6000F000FFFF2DE978470C46164698460025B0
:106C70004FF0060A6268B2F86010ABB2994203D8CE
:106C80004FF4CA70BDE87887536A1FFA85F90AFB8A
:106C90000933D118D35C012B15D1236849889B682F
:106CA00020469847014670B14FF0FF3230461FF042
:106CB000D7FB40B942464946204620F090FE0028C6
:106CC000DED0C820DEE70135D4E72DE97847089CFF
:106CD000154621801046984619F070FAD5F808A09C
:106CE00060609AF80230C3F3430323724FF6FF79D2
:106CF000BAF80A106868A4F8149020F02DFE08B3C2
:106D0000831E00260A3033F8022F4A451EBF711C2D
:106D100028F81620CEB28342F5D1284619F04EFA53
:106D200003787B2B04BFBAF80C30A382AB68A68132
:106D30009A88E282DA881B89C4F8108022836383F0
:106D4000BDE878870646E8E730B587B0144601917C
:106D50001D461BF083F8019903AA19F072FC20B1BB
:106D600021782A4603A819F0E3F907B030BD0000E6
:106D700010B588B01C460D4B049313788DF80C3079
:106D800003AA04ABFFF7E0FF68B10B9B01930A9BDA
:106D900006980093079ABDF81410234608F064FE85
:106DA000C82008B010BD4FF4CA70FAE770BB0500E8
:106DB00070B586B01E46174B029313788DF80430D9
:106DC00001AA02AB0A9DFFF7BFFFF8B102A817F0B6
:106DD0000AFE0446D0B118F037FEC0B2B04215D951
:106DE00034F8164002A8214617F010FE70B103785F
:106DF000DB0758BF03882C8054BFC3F34E03002326
:106E00006B804388AB80C82006B070BD4FF4CA7059
:106E1000FAE700BF70BB05001FB50C4620461146BF
:106E2000CDE9022320F0A9FDDDE90213024648B1B5
:106E30000798019006980090204608F015FEC8209B
:106E400004B010BD4FF4CA70FAE72DE978410C4642
:106E500020461146069D984620F08FFDD0B141880E
:106E6000204620F09BFD0646A0B118F0EDFD404500
:106E700010D936F818602046314620F09FFD48B101
:106E800003886B8083782B7183882E80EB80C820E9
:106E9000BDE878814FF4CA70FAE738B50846114664
:106EA00015461C4620F08AFD40B103886380837834
:106EB000237183882580E380C82038BD4FF4CA70D1
:106EC000FBE74FF6FF70824230B517D04868B0F844
:106ED0006810914212D9416B01EB82014418455C64
:106EE000ED0758BF415A1A8058BFC1F34E0162885E
:106EF0009A8048BF00215980C82030BD4FF4CA7025
:106F0000FBE7FF2A0CD04868B0F870108A4207DA15
:106F1000416C1A7001EB4201425A5A80C8207047F6
:106F20004FF4CA70704738B51C460B6808469B681A
:106F300011461546984718B160602580C82038BDB5
:106F40004FF4CA70FBE72DE970431D461B6890B0F3
:106F5000DB6806468846284611469146984704460F
:106F600030B94FF4CA724146304601F003FB67E086
:106F700000212C2205A88DF817108DF81A108DF815
:106F80001E108DF822108DF82810ADF82C100C91E1
:106F90008DF83410ADF838100F912BF0FFFF2378E7
:106FA000042BDED8DFE803F00320303C4F00A37849
:106FB0008DF818304FF480726379ADF8162022797D
:106FC000ADF8149043EA022301228DF81A20ADF89F
:106FD0001C3005A903A800F0DBFC03ABC822414626
:106FE000304601F001FA2BE001238DF8163062885B
:106FF000ADF82020A288ADF814908DF81E308DF8E1
:107000002230ADF82420E4E702238DF8163063889F
:10701000ADF8149001228DF82220ADF82430D8E785
:107020002B6861885B6928469847002899D005AB92
:10703000CDE9004342464B462946304600F016F85B
:1070400010B0BDE870832B68A2889B69294603A80D
:107050009847049B002B84D005ABCDE90043424602
:107060004B462946304600F027F8E9E72DE97047FE
:10707000E5B00DF1100ADDF8B491984604460E46CD
:10708000154600214FF4C07250462BF087FF6C9AD2
:107090003A2341463046CDE900A908F0A5FC49460F
:1070A00002A800F075FC02ABC8222946204601F078
:1070B0009BF965B0BDE870872DE97047C5B00DF14B
:1070C000100ADDF83491984604460E461546002114
:1070D0004FF4807250462BF061FF4C9A5723414683
:1070E0003046CDE900A907F05FFC494602A800F050
:1070F0004FFC02ABC8222946204601F075F945B085
:10710000BDE870872DE9704F2DED028BA4B008EE1D
:10711000101ADDF8B8900693044692469846237AF2
:10712000082B00F20682DFE813F009003A008F0016
:10713000D400FE0026018801B00112021AF08EFE72
:10714000C3691E781B7A1E44F6B200964B4606AA07
:107150004146204600F028FB0546002800F05B81F0
:107160004FF0000BE368B34280F0558110220021FC
:1071700014A8CDF854B02BF011FF217B14AA20469F
:10718000FFF738FD14AB4A4606A9404600F038FB2D
:10719000002800F03F81E3680133E360E2E7DAF8BA
:1071A0000430B3F8726000964B4606AA414620466A
:1071B00000F0FAFA0546002800F02D810DF1500B81
:1071C000E368B34280F0278100231593ADF85C306B
:1071D000002319461C22584618932BF0DFFE0AABF9
:1071E0000093E16818EE100A07AB0DF1160219F0D2
:1071F0001EF8C82819D0BDF81630ADF850300F234E
:107200008DF85830AB4B15934FF0FF33CDE9193360
:107210005B464A4606A9404600F00BFB002800F0FA
:10722000F980E3680133E360CAE70C2200210EA86D
:107230002BF0B4FEBDF81610CDF800B00EAB07AAC7
:107240002046FFF742FDE3E7DAF80430B3F86C605C
:1072500000964B4606AA4146204600F0A5FA054690
:10726000002800F0D8800DF1380BE368B34280F0BD
:10727000D28000234FF000021946ADF84020ADF84F
:10728000482058461822119313932BF087FE1022A2
:1072900000210AA82BF082FE14AB402200211846E0
:1072A0002BF07CFE14ABA289009351460AABCDF8BB
:1072B00004B02046FFF7B0FD5B464A4606A94046AB
:1072C00000F0D0FA002800F0A580E3680133E36005
:1072D000CBE7DAF80430B3F8686000964B4606AAAC
:1072E0004146204600F060FA0546002800F09380F1
:1072F000E368B34280F08F800622002114A82BF0AF
:107300004DFEA28914AB51462046FFF7DAFD14ABBF
:107310004A4606A9404600F0BEFA00287AD0E36843
:107320000133E360E4E7DAF80430B3F86460009610
:107330004B4606AA4146204600F036FA054600288C
:1073400069D0E368B34266D20822002114A82BF06A
:1073500025FEA28914AB51462046FFF79EFD14ABD3
:107360004A4606A9404600F0AFFA002852D0E3682A
:107370000133E360E5E7DAF804300DF1180BB3F8F8
:10738000606000964B465A464146204600F00CFA93
:10739000054600283FD0E368B3423CD2CDE90093D4
:1073A00042465B465146204600F0F0F818B1E368CB
:1073B0000133E360EFE7069A424540F0C1803E4961
:1073C000039001201FF0A8F8039B8DF85330194655
:1073D0002C2214A88DF856308DF85A308DF85E3076
:1073E0008DF86430ADF868301B938DF87030ADF8CF
:1073F00074301E932BF0D2FD4FF6FF73ADF8503072
:107400008DF852304A4614AB5946404600F0DFF939
:107410000028CCD10546E3689E4200F29580227A8E
:107420000023E36023822375072A00F28C80DFE8C3
:1074300002F0899D9FA1A3A5A7A9DAF80430B3F8AB
:10744000706000964B4606AA4146204600F0ACF913
:1074500005460028DFD0E368B342DCD204220021D5
:1074600014A82BF09BFD227B14AB51462046FFF75E
:1074700048FD14AB4A4606A9404600F03EFA0028F3
:10748000C8D0E3680133E360E5E7DAF80430DA688E
:10749000B3F8541013440022934690B281420DD9A0
:1074A00013F8010B18B90BF1010B1FFA8BFB01321A
:1074B000F3E700BF51340600B25305004B4606AA5D
:1074C0004146CDF800B0204600F06EF9DAF8003001
:1074D00005469B680021504698475E460390002D64
:1074E00099D0E3685B4596D200231946082214A878
:1074F00015932BF053FDE368CBB1208A039B18440E
:10750000FFF79CF8039B1590C31AADF850304A461C
:1075100014AB06A9404600F009FA00283FF47AAF00
:10752000BDF850302382E3680133E360D9E7039864
:10753000E8E7154901201EF0EFFF002601256AE764
:10754000054668E701232372002D7FF4E8AD069B12
:107550002F9AA3EB08031360207AA0F10803584286
:10756000584124B0BDEC028BBDE8708F0223EAE7DE
:107570000323E8E70423E6E70523E4E70623E2E73D
:107580000723E0E70823DEE70B5405002DE97043ED
:1075900090B0884615461799DDF858900DF1120203
:1075A00040461E4620F01BFA044600287ED00021EB
:1075B0002C2205A88DF817108DF81A108DF81E10C2
:1075C0008DF822108DF82810ADF82C100C918DF844
:1075D0003410ADF838100F912BF0E0FC2378042B19
:1075E0005BD8DFE803F0032032404D00BDF81230D5
:1075F000ADF81430A3788DF818304FF480726379A9
:10760000ADF81620227943EA022301228DF81A20D0
:10761000ADF81C3005AB4A463146284600F0D7F895
:1076200010B0BDE87083BDF81230ADF814300123FE
:107630008DF816306288ADF82020A2888DF81E30B3
:107640008DF82230ADF82420E4E7BDF81230ADF813
:10765000143002238DF816306388ADF824300122EF
:107660008DF82220D6E705ABCDE90143BDF81230F5
:10767000009332464B4629464046FEF793FFCFE73C
:1076800005ABCDE90143BDF81230009332464B46BD
:1076900029464046FEF7ADFFC2E7054901201EF02E
:1076A0003BFF044840F26D4100F052FC0120B7E777
:1076B0003D5405009D5305002DE970471E46438A41
:1076C000E9B004468946924683B1BDF8C021934291
:1076D0000CD0314901201EF01FFF40F2A7123146A5
:1076E000204600F047FF69B0BDE8708700214FF4E5
:1076F000C87204A82BF052FC284B1A6812F0010F34
:10770000274A01BF40F28711116001211960638A85
:107710002BB9C4E9033323722375738863820DF197
:107720000C08CDF804801368009352460DF119033C
:107730000025494620460395FFF7E4FCD8F80030C1
:1077400003F10902B2F5C87F0AD9164901201EF0DB
:10775000E3FEC4E90355257225754FF4FA72BEE7BE
:107760001A0A8DF811301B0C8DF810508DF812206C
:107770008DF8133005958DF8185050B1C4E90355B4
:107780002572257504ABC8223146204601F0CEFE95
:10779000A9E704AB6422F7E7795405008C2C00209C
:1077A000F82F0020B654050037B5054608462C7D55
:1077B00011461A4644B9069BADF806300DF1060392
:1077C00000F0CDF804462875204603B030BD80B5E2
:1077D00086B000AFF860B9607A603B6007F11003D3
:1077E0003968184600F0D4F807F110007B68BA68D1
:1077F000F96807F031F9034618461837BD4680BDD1
:1078000080B586B000AFF860B9607A603B6007F180
:1078100010033968184600F0C1F807F110007B68C2
:10782000BA68F96807F018F9034618461837BD46D4
:1078300080BD80B586B000AFF860B9607A603B600B
:1078400007F110033968184600F0AEF807F1100090
:107850007B68BA68F96807F0FFF8034618461837DE
:10786000BD4680BD80B586B000AFF860B9607A6073
:107870003B6007F110033968184600F09BF807F1E8
:1078800010007B68BA68F96807F0E6F80346184606
:107890001837BD4680BD80B586B000AFF860B960CE
:1078A0007A603B6007F110033968184600F088F8E9
:1078B00007F110007B68BA68F96807F0CDF8034655
:1078C00018461837BD4680BD80B586B000AFF86059
:1078D000B9607A603B6007F110033968184600F020
:1078E00075F807F110007B68BA68F96807F0B4F81A
:1078F000034618461837BD4680BD80B586B000AF38
:10790000F860B9607A603B6007F110033968184687
:1079100000F062F807F110007B68BA68F96807F0B8
:107920009BF8034618461837BD4680BD80B586B023
:1079300000AFF860B9607A603B6007F11003396806
:10794000184600F04FF807F110007B68BA68F96834
:1079500007F082F8034618461837BD4680BD80B54B
:1079600086B000AFF860B9607A603B6007F1100341
:10797000396818460FF044F807F110007B68BA68C0
:10798000F96807F069F8034618461837BD4680BD08
:10799000014AC0E9002170472B000300014AC0E9F9
:1079A0000021704722000300014AC0E9002170470E
:1079B00023000300014AC0E90021704725000300AD
:1079C000014AC0E90021704726000300014AC0E9CE
:1079D0000021704727000300014AC0E900217047D9
:1079E0002C000300014AC0E9002170472D0003006C
:1079F00070B505460C468E18B44206D02B6814F8B4
:107A0000011B1B6928469847F6E7012070BD032338
:107A10000375704703230373704703230371704793
:107A2000427D0B46012001491EF076BD0C55050034
:107A300010B50449044601201EF06EFD0223237395
:107A4000012010BD1C550500A0F10800FFF7F0BF94
:107A500010B5054A022104461FF02CFEC82806BFB7
:107A600001202073002010BDB45F0500A0F10800C4
:107A7000FFF7EEBF10B504462AF064FB204610BDA8
:107A800080B10378022B03D0032B0BD03BB9704796
:107A900043689B0706D0044901201EF03DBD03202A
:107AA00023F0F4BF704700BF3855050008B5054600
:107AB00000F10806686A16F05FFA286A16F05CFAA8
:107AC0006C69B4421DBFD4E903231361DA6000245A
:107AD000286A16F025FA002CECD0E86A20B1036879
:107AE000D4E90012DB689847AB6A23B11B6813B175
:107AF00001462068984720461DF010F9DDE770B573
:107B00000446006A16F038FA04F108066569B542C1
:107B10000ED0D5E903231361DA60A36A23B11B6891
:107B200013B128680021984728461DF0F7F8EDE7C3
:107B3000206ABDE8704016F0F3B9000010B5074B9D
:107B400003600446C0691EF0CFFB606A16F034FB88
:107B5000206A16F031FB204610BD00BF70BE050044
:107B600010B50446FFF7EAFF20462AF0EBFA20465C
:107B700010BD000038B51149054601201EF0CCFCAF
:107B80000F4901201EF0C8FC23F008FF40B123F08C
:107B9000C5FE002023F09AFC0A4901201EF0BCFC1F
:107BA00027F052FF08490246044601201EF0B4FCAB
:107BB000B4FA84F2520985F8242038BD63550500D3
:107BC0009A550500BA550500CF55050010B5034973
:107BD00004461FF06BFD0023237310BDB45F050046
:107BE000A0F10800FFF7F2BF10B5074B03F1080240
:107BF00054330446026040F8083F20F079FA2046EA
:107C000022F0E2FB204610BDA8B80500A0F1080054
:107C1000FFF7EABF10B50446FFF7E6FF20462AF05B
:107C200091FA204610BDA0F10800FFF7F3BF000055
:107C3000784B794A79482DE9704F0024784D9A6045
:107C4000784ADFF89CB2DFF89CA2C3E900444FF405
:107C5000E821C3E903122BF08AFB9E222146284625
:107C60002BF09CF9214685F89E409E2205F19F004D
:107C70002BF094F96C4B85F83D4102260325042234
:107C80004FF001084FF005095A709D70DD705D716D
:107C9000DD711D725D725E739E731E745E749E75DF
:107CA000DE751D765D769D761C701C719C7183F867
:107CB0000A8083F80B801C73DC7383F8129083F8BE
:107CC000139083F814905C7554482BF050FB534884
:107CD0002BF04DFB554B564956481960D860C3F8F8
:107CE00004B0C3F808A0544B04221E7683F8242065
:107CF00083F830501C705C601C7283F80C801C612F
:107D00001C75DC6183F820409C6283F82C405C6326
:107D100083F8384083F83C901C6483F84440FEF7B5
:107D20003BFC464B464A1A60464A5A60464A9A60AD
:107D3000464ADA60464A1A61464A5A61464A9A6198
:107D4000464ADA61464A1A62464B474A1C80474B0C
:107D500037491A60464B474AC3F808A0C3E9001BDD
:107D6000454B46481A60464A5A60464A9A60464A17
:107D7000DA60464A1A61464A5A61464B464ADA6018
:107D8000464A1A61464AC3F808A0C3E9001B5A6173
:107D9000444A454BC3E90024444B83F80080444BDC
:107DA0001E72C3E90044434B434EC3E900441D72B5
:107DB000424B434D1C701FF06BFD424A424B136017
:107DC00045F6B103013B16D015F801CB0821802000
:107DD0001CEA000FA64614BF4FF001084FF0000840
:107DE00048EA4404BEF1000FB8BF744001394FEABD
:107DF0006000EDD1E6E73548354984420CBF0C46BA
:107E000000245460334AC2E90033334B334A1A60CA
:107E1000BDE8708FC02B002045CC020073530500D5
:107E2000A82E0020FFFF07003C2E0020CC2C0020B5
:107E3000FA5505000F560500182D0020102E0020C1
:107E400054BA05009CB9050078B9050038BA050098
:107E5000C0B90500F4B9050020BA0500DCB9050079
:107E60000CBA0500582E0020C4BB05005C2E002073
:107E7000A42D00201A560500B42D00207C2E0020D1
:107E80002156050026560500325605003B560500D2
:107E900043560500B02C00204D5605005E560500E7
:107EA0006456050084BA0500342E0020602E0020A0
:107EB000702E0020642E0020B71DC104612E00200A
:107EC000C45F0500842C002054B9050039F4857581
:107ED000B85F0500A02E0020FC2F0020E5810400E3
:107EE000005605000856050038B5038804469BB1C6
:107EF000C3788BB18578C5F38105012D05D11FF0BD
:107F000091FC064928461EF007FBE278044901204F
:107F10001EF002FB0023E37038BD00BF735605005E
:107F20009556050073B5054610460E4601922BF096
:107F30001EFA431CB342044688BF06F1FF34019980
:107F4000224628462BF002F80020285502B070BDCA
:107F50000A4608B50146012015F0B0F81CF0A3FA56
:107F600070B5044680690E4615F0E0FF6568CDB92E
:107F7000237FA0690133DBB2237715F0C1FF2946C7
:107F8000206915F0E5FF0546A06915F0CFFF237FB6
:107F9000013BDBB22377002DE8D1A06915F0B0FFDB
:107FA000284670BD63681BB910485321FFF7D0FF06
:107FB0002368E1680C2202FB031207CA86E8070067
:107FC000A16860690133B3FBF1F201FB1233236056
:107FD0006368013B636018B1637F0BB115F0A0FFCC
:107FE000A06915F08DFF0125DAE700BFA75605004F
:107FF0002DE970472B4DD5F800A050451E4634BFE3
:1080000000230123044689460AFB13012648C5B014
:10801000C05C90460DF10E020FF044F82D685445F7
:1080200038BF0025651BAB0C9B041BB11F488D217D
:10803000FFF78EFFB9F1FD0FE4B2C4F5807428BFDD
:108040004FF0FD094C4528BF4C4641466DBA2246CB
:108050000DF11200ADF810502AF078FF14239DF8AE
:108060000E10009304AAA31C012005F01DFC054678
:10807000022023F063F841F2863800230DF10F024D
:10808000012118460FF020F828B9012023F056F8F6
:10809000B8F10108F1D105B13460284645B0BDE81A
:1080A000708700BF0830002010300020B656050051
:1080B000406810B50C4620B906484FF49371FFF79D
:1080C00047FF0368D1E90012DB68984708B1002335
:1080D000636010BDC15605002DE9704305460C468E
:1080E00000264FF07D08D4E90003EA6803441044F9
:1080F000D4E9022111449142944613D9984211D9EE
:1081000012F801EBAEF17D09B9F1010F1DD894F819
:108110001090B9F1000F15D103F8018B984212D8D5
:10812000012222742268A1EB0C019B1AC4E9013CD4
:10813000E16069B121462846FFF7BAFF0028D2D195
:10814000BDE8708326748EF0200E03F801EBD2E7B1
:108150000120F5E72DE97041836816467E2287B03D
:108160001A70836801930123CDE902310D464FF067
:10817000000801A9044604968DF81480FFF7ACFFAF
:1081800018B9002007B0BDE8708129463246404644
:108190001EF08EF9042300900DEB03012046CDF86C
:1081A0000CD00493FFF798FF0028EAD0E368029A06
:1081B0009A420AD2029B5A1C0292019A7E21D15401
:1081C000204601A9FFF774FFDCE701A92046FFF76D
:1081D0006FFF0028EED1D4E770B5037D012B044674
:1081E00037D17E29056913D0C368AB420AD97D29EE
:1081F00005D08368681C20615955002070BD02239A
:108200002375FAE7032329490375FFF709FCF4E70F
:108210000023042D03751AD98668043D05612A469A
:10822000184631461EF044F9735983420CD16068F8
:1082300018B955211E48FFF78BFE03682A463146C0
:10824000DB68BDE8704018471A492046DDE71A4947
:10825000DBE753B901227E2902750361CDD07D2968
:10826000CDD0836802611970C7E7022B15D17E2932
:108270000FD07D2909D0012303750369826881F03D
:108280002001581C2061D154B7E703230B49037523
:10829000BBE700230A490375B7E7032B01D0A021F0
:1082A000C8E77E29A9D10023AAE700BFD15605005F
:1082B000C1560500E0560500EC560500FC560500C9
:1082C0000E57050010B50C4611461A464FF6FF73BF
:1082D0009C4203D104482F21FFF73AFE0068204456
:1082E000BDE810400EF082BE1F57050070B50E4667
:1082F0000021054617F037FC4FF6FF7398420446FD
:1083000008D0A8682A698188036804FB01229B6859
:1083100031469847204670BD1E4B73B50922036055
:1083200000230446436003810273C3816FF47F42DC
:10833000838283614FF6FF7580F82130FF2380F838
:1083400022300261C56180F8201019F087FDA38BEF
:10835000AB42064604D04FF46C710F48FFF7F8FDAE
:10836000406915F00BFFB06B019401A90830FFF7CD
:10837000BDFF0546706915F0F5FE2B0402D540F2ED
:10838000B731EAE76FEA45406FEA5040A0832046E4
:1083900002B070BDD0BA05003C57050070B500F1C1
:1083A0006C030446002513F83520632A16D105F125
:1083B0000D060C4B54F83610204605221FF0ECFF3A
:1083C0006FF47F4344F8363004EBC504002384F88F
:1083D0006C3084F86D3084F86E3070BD0135042D3A
:1083E000E1D1FAE7702E00202DE9704F80468EB063
:1083F0000C4615461E461FF09BF8D8F80030E903DE
:1084000000F0010A9B688346404644BF4FF0010AD2
:1084100025F4803598476AF3000B07AB0DF1100A7D
:108420000193CDF800A0E3885A464FF0020181463F
:1084300019F0B8F9C82805D0204618F0D7F80EB0C2
:10844000BDE8708F63789A061FFA85F816D5B8F5DF
:10845000967F0DD203F00F01042901D1318839B97B
:10846000204618F0C3F8637843F080036370E6E7B2
:10847000217AC3F3401363F3820121721BF0010FD1
:108480004AD107A9484618F0C0FB002844D16378B8
:1084900003F00F03029340F2F513984502D133889D
:1084A000002B39D02E4B02990A930AAA504617F096
:1084B0003FFE002841D041460AA817F0DBFC03909C
:1084C00000283AD0B378DB07039B48BFB6F800B06A
:1084D000598858BF4FF6FF7B59451DD05A460AA808
:1084E00017F030FDC0B91F4901201EF015F85046A5
:1084F00017F064FEADB2029B1B4900930246BDF823
:108500001030019501201EF007F8039B17495B8886
:108510005A4601201EF000F8B8F5967F3EBF6378FA
:1085200043F080036370124B1B780093424633463E
:108530002146484619F0F0FF81E70A4901201DF065
:10854000EBFF504617F03AFEADB2029B0093024695
:10855000BDF810300449019501201DF0DDFFDBE777
:1085600070BB05004B570500705705008D5705007F
:10857000612E002030B585B004460D4602A806499C
:1085800001921FF015FB019A02AB29462046FFF726
:108590002BFF05B030BD00BF7C2E002030B5044657
:1085A00087B00D4601201C491DF0B6FF237B022B2E
:1085B00006D040F2F71229462046FFF7DBFF25E000
:1085C000EB88B3F5605F23D100238DF80A30A38BCD
:1085D000ADF80830E37F8DF80C30236A049394F8EB
:1085E00026308DF8143094F825302BB101238DF806
:1085F0000A30A37F8DF80B30084B009302AB019338
:10860000C8226B4629462046FFF7EEFE07B030BD74
:108610004FF4CA72CFE700BFAD5705000138030021
:108620002DE9704F04468CB01E468846C3F30313F1
:108630004FF001011546128819F09EF8310C2046C2
:1086400018F026FB814620B9494840F26321FFF724
:108650007FFC606915F092FD05EB48030093C82686
:108660004FF0160A009BAB427BD035F8021B06ABDD
:1086700003AA04F12C0017F043FFC82804D0C82E29
:1086800008BF4FF4CA76EDE7BDF82020B9F80630F0
:108690009A4205D040F29313C82E08BF1E46E1E768
:1086A000216C35F802BC01F10808414609A818F010
:1086B0008BF808F10808099BBDF82810DB890191A7
:1086C0008B420DD009A818F044F8C38801995B4586
:1086D00002D1404617F018FA09A818F04DF8EAE759
:1086E000B9F80610206A19F01DF8BDF82210E06BE9
:1086F00018F010F88046B8F1000F2BD098F803B0AE
:10870000BBF1000F17D198F802102046090917F0A5
:10871000F5FFB8F8042035F8023CADF826200A939E
:108720004FF4FA72012309A90C30ADF824A0ADF87A
:108730002CB019F0A3FDE36BB8F8001001931846B4
:1087400017F0E8FF019B83464146184617F00AFFE1
:10875000D846D0E74FF0FF3306A8089317F035FD51
:1087600080E7606915F0FEFC30460CB0BDE8708F04
:108770003C570500154B73B50360154B044643EA9F
:108780000131416019F06AFBE2884FF6FF739A42AB
:10879000054604D040F2ED110E48FFF7D9FB4069C1
:1087A00015F0ECFC686B019401A90830FFF79EFD01
:1087B0000646686915F0D6FC330402D54FF4FA7109
:1087C000EAE72046E68002B070BD00BF14BB05009A
:1087D0000000FFFF3C57050070B50C1D01F11405AA
:1087E00090F801E090F800C086784FEA8E0202F01F
:1087F0003C02330142EA9C121CF03F0C03F03003B0
:1088000018BF0CF12F0C43EA1E13B60804F804CC71
:1088100002B12F3204F8032C0BB12F33DBB204F872
:10882000023C0EB12F36F6B204F8016C0434A542B6
:1088300000F10300D4D100230B7470BD2DE9704307
:10884000057B05F5E8652D0286B004462846894675
:108850000FF042FC002864D01022294602A82AF01A
:1088600075FBBDF80E2002F11003FF2B5FD82368C3
:10887000029999425BD1BDF80C30002B54D0A188ED
:10888000994251D3E18891424ED39DF81400217B47
:1088900088424CD1A380049BA36000269DF815302C
:1088A0006373E68105F1100148462AF04FFB102260
:1088B00002A930461DF0FCFDBDF80E804946424637
:1088C0001DF0F6FDC8F1EC0804468DF80360B045D4
:1088D00015D10422002305F1FC010DEB02000193E8
:1088E0002AF034FB019B9C4212D0012013492246FE
:1088F0001DF012FE6FF0020006B0BDE87083204646
:1089000001220DF103011DF0D3FD01360446DEE71F
:108910009DF81500FF280DD0013818BF4FF0FF302B
:10892000EAE76FF00700E7E76FF00500E4E76FF0B4
:108930000400E1E76FF00100DEE700BFD457050057
:1089400010B5BCB0044602A80EF0A6FE431CDBB274
:10895000012B01D902300FD114210DF159002AF059
:1089600046FD0DF1590113280ED8421C20462AF06D
:108970002BFD01203CB010BD044B19680191084645
:108980002AF0F5FC0199EEE70020F3E7182A002011
:108990001FB504234000CDE900130C46012340F02D
:1089A00001008DF80F001A460DF10F01184604F072
:1089B00023FE22681304C2F3074103F47F030B4331
:1089C00002F47F421343236004B010BD1FB50B0CAB
:1089D0008DF80D304000002349BA8DF80C00ADF839
:1089E0000E10CDE90033042203A9012004F004FE97
:1089F00005B05DF804FB00002DE9704191B004461C
:108A00000D4604A80021FFF787FC0020134B0493B8
:108A100001210D908DF8380015F0DAFBDFF8448065
:108A20000F4E0F90043C54F8043F8BB12A7800930A
:108A300058F822203146002301201DF06DFD2B78CF
:108A400021688DF80C3003AA04A818F0CBFBEAE7E4
:108A500004A818F003FC11B0BDE87081ECBB050060
:108A6000F6570500202A00202DE9704F40F2FB1335
:108A70009A428AB080460C4615461DD06FF4FB73AF
:108A800002EB0309B9F1010F94BF4FF000094FF059
:108A9000010905A920461EF0F5F894F80EB0A27B56
:108AA000052A5FFA8BFBD3B209D8022B0CD866D00B
:108AB000002084F8280086E04FF00009E9E7062B43
:108AC000F6D10723A3736FE094F82730002B54D11D
:108AD000E66A94F80EA01DF095FBB3681B688DF84C
:108AE00004B018440623A373E37B206143F0100312
:108AF000E373012201AB214608F10C0006F0E1F915
:108B0000102204F1300101A894F80CB02AF01EFAEA
:108B1000337C01333374D8F808005FFA8AFA15F011
:108B200021FBBAF1030F33685FFA8BFB16D1DB69C7
:108B30002A4601A9304698470546D8F8080015F09E
:108B40001DFB304618F0FDFBCA2D0CD1BAF1030F06
:108B500038D122484FF4EF61FFF7FAF91B6A01A9F7
:108B600030469847E8E7237B9B452BD1A37B062B18
:108B70005FFA83FB26D1C82DA3D10223A373B9F1D9
:108B8000000F9ED1E37B03F00602062A4FF0020598
:108B90001CD11DF037FBE37BA57300F56A4043F061
:108BA00010036030E373206101AB08F10C00012277
:108BB00021468DF804B006F084F9002384F82830AB
:108BC000012000E000200AB0BDE8708F69F30413B3
:108BD000A573E373C4F81090E6E700BF03580500DF
:108BE0002DE9704F86B09B4605AB02930DF1120341
:108BF000B2F1000A01934FF00003009318BF132253
:108C00004FF0200308BF12228046894607F086F8FD
:108C1000054600285AD0BDF8123046791E44083661
:108C2000841909236370BAF1000F01D099F80D304F
:108C3000AB5598F82421002A08BF1A46AA5599F87E
:108C40002430A370D8F864201368C4F80330536844
:108C5000C4F807309368C4F80B3006F081F9014678
:108C600004F10F000AF01BF8059BE27DDB6A9B68AC
:108C7000197A61F30002E2751A7AE17DC2F380028B
:108C800062F34101E1751B7A83F00803C3F3C0026C
:108C9000CBB203F0030343EA8203E3750822002109
:108CA00004F118002AF07AF90599CDF800B00123F3
:108CB0002A46404606F0AFFBCA28044602D02846A2
:108CC00017F022F9204606B0BDE8708F40F2FB1481
:108CD000F8E700002DE977410D4602A901E90C00F3
:108CE00006461820DDF800801EF0F0F80D4B0360FA
:108CF0000D4BC0F80C80C0E9013500250446056124
:108D0000014630461DF0FEFE606120B907484FF471
:108D10008A71FFF71DF92946057203B0BDE870415D
:108D20001DF0E2BB30B90500BCBA05001F580500B4
:108D300070B506460C4600256368AB4208D901357C
:108D400004EBC501304616F065FD0028F4D170BD76
:108D50000120FCE770B5104991F82D5091F82E6074
:108D600091F82F4091F8302091F8313091F832008D
:108D7000FF2D08D106EA04052A4013401840FF38A9
:108D800018BF012070BD35432C43224313430343D6
:108D900014BF01200020F5E7702D002013B509490C
:108DA000044601201DF0B8FB40F2011301A9A0B256
:108DB000ADF8043013F084FF08B122F067FE02B072
:108DC00010BD00BF3D5805001FB5037A044613B916
:108DD000002004B010BD6023012A8DF808300B7804
:108DE0008DF809301CBF4B788DF80A300A230093A8
:108DF0001821531C002002AA04F056FD0028E7D0D9
:108E0000204613F077F9E4E773B5024604460D46B1
:108E100001201F491DF080FB1E4B53F82460AEBBA0
:108E200043F824501C4B032520461D5504F070FFC9
:108E30001A4B8DF80450003818BF012018554FF018
:108E4000A04204F5E073164952F823308DF806600D
:108E5000C3F38103224601208DF805301DF05CFB31
:108E6000104A01A9204623F05DFD054638B10246AF
:108E70000D4901201DF050FB284622F007FE204638
:108E8000012123F0D9FD012002B070BD0020FBE7D5
:108E900048580500AC3000202C31002089300020DB
:108EA00069580500D95D03008458050013B54FF0DB
:108EB0000314CDE900436B46FFF796FA02B010BDEC
:108EC00007B5054BCDE900326B46C822FFF78CFA97
:108ED00003B05DF804FB00BF0100030030B587B0AC
:108EE00048F2010300206425ADF8143004F038FB8B
:108EF0000095022305AA4821002004F0D5FC38B9CA
:108F00001B4901201DF008FB9FED1A0A07B030BD78
:108F1000322022F013F902230024019304AB0093C2
:108F20000295012305AA482120468DF8144004F03B
:108F30001FFC08B91049E4E7204604F0B5FA9DF893
:108F400010309DF811209FED0D7A9FED0D0A42EA39
:108F500003221309D20B1EBF5B42C3F30B035B4218
:108F600007EE903AF8EEE77AA7EE870ACEE700BF61
:108F7000AD58050000FF7F47D35805000000803D35
:108F80003393884313B5044CCDE900436B46FFF798
:108F90002BFA02B010BD00BF070003002DE970419D
:108FA000ADF5037D04460D464FF48072002102A802
:108FB00029F0F4FF2146102202A829F0C7FFE28819
:108FC000294606A829F0C2FFFC2202A900201DF0B4
:108FD0006FFA042201900DEB020141A829F0B6FFBF
:108FE000247B04F5E864240224F44076B6F5E82FE7
:108FF00024F480780DD03D4B9E420AD0B8F5E92F7D
:1090000007D003F5C0639C4203D0FC213848FEF72B
:109010009FFF20460FF060F8C31D054630D1B6F51E
:10902000E82F0BD0314B9E4208D0B8F5E92F05D080
:1090300003F5C0639C4201D0D721E7E74FF40070ED
:109040001BF094FE0546B0B34FF400724FF4E821D4
:1090500029F07CFFA4F5E8204FF48072FF2128441A
:1090600029F09CFF4FF4007229464FF4E82004F0E9
:1090700011FDB0F5007F28461BD11BF04FFE0025E7
:109080004FF4807202A9204604F004FDB0F5807F01
:1090900029D11DBBB6F5E82F10D0144B9E420DD040
:1090A000B8F5E92F0AD003F5C0639C4206D097219A
:1090B000ACE71BF033FE6FF00305E1E74FF480727D
:1090C000214642A829F042FF4FF4807242A902A82B
:1090D00029F02EFF002818BF6FF0040528460DF573
:1090E000037DBDE870816FF00305F7E700440700DA
:1090F000F35805001FB5012360F07F00CDE9001291
:109100008DF80F001A460DF10F01002004F074FADB
:1091100005B05DF804FB1FB500238DF80C008DF839
:109120000D10CDE90033022203A9184604F064FAB9
:1091300005B05DF804FB70B504460E4601208021A1
:109140001546FFF7E8FFA8B13C210220FFF7E3FF37
:1091500080B131460320FFF7DEFF58B129460E20CB
:10916000FFF7D9FF30B1237833B900210120FFF791
:10917000D2FF70B9002070BD10210420FFF7CBFF93
:109180000028F7D020210720FFF7C5FF0028ECD1E9
:10919000F0E72378002B14BF04213C211920FFF7AE
:1091A000BAFF0028E6D049211A20FFF7B4FF0028B3
:1091B000E0D080211020FFF7AEFF0028DAD0142085
:1091C00021F0BCFF2378002B0CBF3821002119208F
:1091D000FFF7A1FF0028CDD000211A20FFF79BFF49
:1091E0000028C7D0BDE8704000211020FFF793BFD2
:1091F00038B504460D4601208021FFF78CFF10B3DF
:109200003D210220FFF787FFE8B129460320FFF741
:1092100082FFC0B106210420FFF77DFF98B1002135
:109220000120FFF778FF70B12378002B14BF0421D1
:109230003C211920FFF76FFF28B1BDE83840092114
:109240001A20FFF768BF002038BD000030B585B098
:109250009B238DF80B300223019303AB0093012372
:1092600005460C4600201A460DF10B01ADF80C0026
:1092700004F0C2F918B9064901201DF04DF99DF816
:109280000C302B709DF80D30237005B030BD00BF41
:1092900007590500D2ED007A91ED006A92ED017A4E
:1092A000D1ED026AD3ED005A36EE676AD1ED017A4C
:1092B00077EEC77A92ED027A76EEC76A93ED037A7B
:1092C00027EE877AA6EE257AD3ED065AA6EEA57A82
:1092D000D3ED015A80ED007A93ED047A27EE877A78
:1092E000A6EE257AD3ED075AA6EEA57A80ED017A8F
:1092F00093ED057A67EE877A93ED027AE6EE077AC8
:1093000093ED087AE6EE877AC0ED027A704710B5E1
:109310000323C0E9003304462422083029F016FE56
:10932000204610BD00B58BB00368019343680293DB
:1093300083680393C36804930369059343690693A1
:1093400083690793C3690893036A099301AB0922F0
:109350001946D3ED007A67EE807A013AE3EC017AA0
:10936000F7D10DF077FF0BB05DF804FB2DE97043EA
:10937000224B93F80080A2B004460D46B8F1000FCE
:1093800004D140F2DD111E48FEF7E2FD10F0FF06A9
:1093900002D04FF4EF71F6E78022FF2102A829F0F6
:1093A000FDFD1849D1E9003162190B449A4222D8D7
:1093B000DFF85490D9F8000021F024F9012004F0DE
:1093C000CFF8802D294601AB28BF802102AA204674
:1093D0000196FEF70DFE18B1019BED1A1C44F0D169
:1093E000012004F061F8D9F8000021F037F9404677
:1093F00022B0BDE87083B046F9E700BF143000200A
:10940000B6560500083000201830002007B5054B7F
:10941000CDE900326B46C822FEF7E6FF03B05DF8E7
:1094200004FB00BF0800030008B54FF4967021F05C
:1094300085FE0D4B1B7823B90C484FF42271FEF7C3
:1094400087FD0B4C206821F0DDF80A4B20680122D3
:109450001A7021F003F9084B1878012802D1074946
:109460001DF05AF813F0BAFC14300020B65605006F
:1094700018300020133000204C3100201259050014
:10948000826838B503680132B2FBF3F503FB15259A
:1094900042689542044609D0A0682369472202FB2E
:1094A000003029F053FDA560012038BD0122C260C3
:1094B000A818B0FBF3F203FB1203221DBFF35B8F6E
:1094C00052E8000FA84204D142E8003CBCF1000F72
:1094D000F6D1BFF35B8FDFD0E6E7000013B5044C95
:1094E000CDE900436B46FEF77FFF02B010BD00BF21
:1094F0000C00030070B50B78012B05460C46164690
:1095000005D10A460221BDE870400DF06FBD4978D3
:109510000F292246F7D90F210DF068FD28B1617897
:1095200032460F3905F10F00EDE770BD13B5044C5D
:10953000CDE900436B46FEF757FF02B010BD00BFF8
:109540000D00030000F580730268013204D104307D
:109550009842F9D10120704700207047214B70B527
:10956000214D186821F078FE2868002121F068FE5E
:1095700018B91E499D2021F0E3F81D494FF4E82059
:1095800004F000FA044628B91A4901201CF0C4FF6F
:10959000204670BD286840F6B83121F051FE38B938
:1095A000154901201CF0B8FF1049AE2021F0C8F881
:1095B000124B28681E6821F059FE46B11049334607
:1095C0004FF4E82201201CF0A7FF0024E0E74FF44D
:1095D000E0231A68013203F10403F6D1B3F5E22F58
:1095E000F7D1D5E7602D0020642D0020205905001B
:1095F00019CC0200755905009E590500682D002000
:10960000CD5905000CB430B597B01AAB0D460F49D3
:1096100053F8042B0C680193502102A82AF0E6F9B4
:109620000B4902AA042021F063FB4CB1237B022BDF
:1096300006D1E37F23B102AA2946204609F066FB42
:1096400017B0BDE8304002B0704700BF842E002044
:10965000F55905002DE97041D5B005461AA80E460A
:109660000EF01AF8044640B14FF4FA72314628461B
:10967000FEF780FF55B0BDE870810DF114080C2293
:109680001AA9404629F062FCCDE9014488F80C4053
:109690001DAB13F8011B79BB01340C2CF9D10A4620
:1096A00008460DF1D7040E940DF1B9040F940DF195
:1096B000CD04109401248DF844400DF209140EAB32
:1096C0001C610DF1B604C3E905480DF59574DC6124
:1096D0003EAC1C6200241C85DC6283F8241009B1B6
:1096E0001885DA62214A3146CDE90323284603ABC7
:1096F000C822FEF779FEBDE7BDF87E209DF87C10FC
:10970000ADF824202D228DF826208DF827108DF815
:1097100029209DF87D108DF82C208DF82F208DF8B4
:1097200032209DF874208DF828108DF83320BDF874
:109730007A109DF87520ADF82A108DF834209DF828
:1097400078108DF82D1000229DF879108DF83520B5
:10975000074A8DF82E1009ABBDF87610ADF8301021
:109760000120CDE90123014601AA9AE7000E03007A
:109770005EFD05002DE97043E4B00BAE14AD1DACE9
:1097800000230022804626A88DF8D420ADF8D820EA
:1097900037928DF8E02039933A933B938DF8F0207F
:1097A000ADF8F4203E928DF8FC20ADF800214192F6
:1097B0008DF8082143934493459333607360B360FD
:1097C000F36033617361B361F36133622B606B608B
:1097D000AB60EB602B6189466B61AB61EB612B6227
:1097E00023606360A360E36023616361A361E3615D
:1097F00023620EF0D7F8002871D1269B3360279B97
:109800007360289BB360299BF3602A9B33612B9B79
:1098100073612C9BB3612D9BF3612E9B33620123FB
:109820008DF8D4308DF8E0302F9B3993309B3A93EC
:109830000322319B3796ADF8D8203B93064602A809
:109840000EF07CF8C8B9029B2B60039B6B60049BF5
:10985000AB60059BEB60069B2B61079B6B61089BD4
:10986000AB61099BEB610A9B2B6201238DF8F03001
:109870000323ADF8F4303E950646002146A80EF0CD
:1098800073F800282DD1589B2360599B63605A9B25
:10989000A3605B9BE3605C9B23615D9B63615E9B5C
:1098A000A3615F9BE361609B236201238DF8FC3021
:1098B0008DF80831619B4393629B44930322639B21
:1098C000ADF80021419445930B4B009335AB0193C8
:1098D000C8226B4649464046FEF786FD09E0012650
:1098E000ADE7002EF0D04FF4FA7249464046FEF73D
:1098F00041FE64B0BDE87083020E030013B5044C52
:10990000CDE900436B46FEF76FFD02B010BD00BF0E
:109910000C0003000346D0F8440210B4D3F83C42D4
:109920000130B0FBF4F204FB1202D3F84002824291
:1099300005D101225DF8044BC3F848227047D3F8E3
:109940004402D3F84C4204EBC00403C984E803008A
:109950005DF8044B9868C3F8442201211CF016BD41
:1099600008B5084A13781BB907484021FEF7F0FAFA
:10997000D2E84F3F013BDBB2C2E8413F0029F7D1BB
:1099800008BD00BF12300020FE590500044AD2E88D
:109990004F3F0133DBB2C2E8413F0029F7D17047A6
:1099A0001230002070477047054B10B504462BB1AC
:1099B000AFF3008010B12123237010BD1123FBE70A
:1099C0000000000062DF7047AEDF7047AADF70471B
:1099D000A8DF70472DE9704F88B004469DF840809D
:1099E000ADF80E101E46154652B940680DF10E0135
:1099F00016F0EDF9054618B9002008B0BDE8708FE3
:109A00002B78022B0DD0032B41D0002BF4D1AB7857
:109A10000C2BF1D12368119A1B68314620469847D8
:109A2000EBE706AA2368019207AA0092D3F8088000
:109A3000119B3246A91C2046C0472E7916F0040619
:109A400081462BD16B886068ADF816300DF1160198
:109A500016F0BDF982460028CED0B0464FF0010B7B
:109A6000079AB3B29A4219D9069BBDF8161043441F
:109A7000CDE900B3524609EB08032046FFF7AAFFE1
:109A800001360028B8D0AB8808EB9318E8E7B8F1A6
:109A9000000F05D02B7913F004080ED00120ACE79D
:109AA000236811AA0092D3F80480119B3246A91CA6
:109AB0002046C0470028EDD19EE7606869880368AA
:109AC0005B699847002897D0A0F1020945464FF6F8
:109AD000FF7A39F8021F5145E0D0606803681B69BE
:109AE00098478046002887D002796942C2F3C203B2
:109AF0001940D0070D4405D4715D681C23EA0505A3
:109B00000544F1B151071CD4119B920705EB030BDF
:109B100006EB050305D422681946D2682046904713
:109B20000346B8F80210CDF804B098F80420C2F348
:109B30004002009220460022FFF74CFF00283FF42D
:109B40005BAFB8F8043005EB9315C2E730B5447845
:109B500004F00105047844EA0524146044780A4DB1
:109B6000C4F342042C5D1C7043780398C3F30014C3
:109B700004700498C3F340130370136802338B42DC
:109B80008CBF0020012030BD7A5F050030B585B064
:109B90000DF10903154601930DF10A030C460093DC
:109BA00003AA0DF10B034FF0FF312846FFF7CEFF5C
:109BB00018B90A481921FEF7CBF99DF80B00039B51
:109BC00001380234C0B264420235044002336D42AF
:109BD0001C442840201A05B030BD00BF0A5A0500B9
:109BE0002DE9704785B015469DF830801C460E461D
:109BF00019B915212C48FEF7ABF9012A01D8162115
:109C0000F8E70DF1090301930DF10A03009303AA8C
:109C10000DF10B034FF0FF312046FFF797FF08B916
:109C20002321E7E7B8F1000F0AD19DF809209DF83C
:109C30000A3012B963BB2E21DCE74BB38DF80A80E2
:109C40009DF80B20039BA11C541E06F10209E4B2EF
:109C5000C1F1000A04EA0A0AC9F1000001EB0A088E
:109C60000440A3EB0A0AA1449DF809300093544430
:109C70009DF80A302146304604F09EFC524641468B
:109C8000484629F063F9A01C85420AD25421B1E765
:109C900082F0010283F001038DF809208DF80A306B
:109CA000CEE705B0BDE870873C5A05000378022B6B
:109CB0001BD0032B1ED033BB8378013B0B2B22D848
:109CC000DFE803F00606060A0A0F0F11110F110F45
:109CD0000120107008607047022313700B60012090
:109CE00070470423F9E70823F7E708230B600423F0
:109CF0001370F4E78388C3F389130B600379C3F30C
:109D0000C2030133F4E70020704700002DE9704FD3
:109D100013788AB004460E469046042B19D8DFE823
:109D200013F0050018008800DB00900198F802305D
:109D30005A1E0A2A61D8674A00200021CDE908018D
:109D4000D25CA0680092314604F0EBFB009A014619
:109D500008B9002571E108A829F0F8F898F8023050
:109D6000013B0A2B13D8DFE803F0060C14181F255B
:109D70002B2F363A4100606803689B689DF82010DD
:109D800004E060689DF920100368DB6898470125AE
:109D900053E160680368DB69F0E76068BDF9201093
:109DA00003681B699847F2E76068BDF820100368F4
:109DB0001B6AF7E7606803685B6908999847E6E7FC
:109DC000606803685B6AF8E7606803689969DDE9C1
:109DD00008238847DBE760680368996AF7E76068EB
:109DE0009DED080A0368DB6A9847D0E7606803685E
:109DF0009DED080B1B6B9847C9E70C2BA9D1806818
:109E0000036808AA1D684FF0FF33A84705460028DD
:109E10009FD0A36808999868089B834299D85A1CD8
:109E200008921B78002BF7D1606803685B6B98473A
:109E30004BE08068042204F061FB002889D0A06810
:109E40000222314604F06DFB002882D0B0F8009069
:109E5000A068B8F804300268C3F38913156809FBD9
:109E600003F308AA3146A847054600283FF471AF1E
:109E7000606803684A469B6E4FF6FF719847B8F8D2
:109E800002302068ADF8183006A915F08DFF06469F
:109E900000283FF45EAF4FF0000860681FFA88F2B8
:109EA000914503680DD91B6F9847324608A9204693
:109EB000FFF72CFF606803685B6F984708F10108A3
:109EC000EBE7DB6E4FF6FF719847A06803685B68AD
:109ED0009847B2E07CB8050098F804208068C2F387
:109EE000C2020132D2B204F009FB054600283FF459
:109EF00030AF606803684FF6FF719B6D984720682C
:109F0000B8F8021003685B69984700283FF421AF56
:109F1000831E00934FF6FF7B009B33F8021F0093D4
:109F2000594500F08580206803681B699847804682
:109F300000283FF40EAF43882068ADF8183006A91A
:109F400015F032FF824600283FF403AF98F80490E2
:109F5000B8F80430A068C9F3C20909F101095FFA31
:109F600089F9C3F389134A463146019304F0C6FACE
:109F700000283FF4EEAE98F80430D90722D4A06848
:109F80000122314604F0CDFA00283FF4E2AE027817
:109F9000C2B96068B8F8001003681B6E9847A068E3
:109FA0004A46314604F0AAFA00283FF4D2AE33689C
:109FB000019A6068B8F800101344336003685B6E60
:109FC0009847A9E798F804309A0712D404AA08A978
:109FD0005046FFF76BFE00283FF4BBAEA068036855
:109FE0003246D3F80090089B3146C84700283FF41A
:109FF000B0AE6068B8F80010036801221B6E984785
:10A00000524631462046FFF781FE00283FF4A1AEBC
:10A010006068B8F8001003685B6E984798F80430E1
:10A020009B073FF579AFA06803685B68984773E7C3
:10A03000606803685946DB6D984728460AB0BDE85A
:10A04000708F406803684FF6FF719B6B9847B8F8B4
:10A0500002302068ADF80E300DF10E0115F0B7FE9C
:10A0600000283FF476AE0378002B3ED18578216836
:10A07000B8F804200B6806A89B699847079B002B3B
:10A080003FF467AEAB1E052B3FF663AE0022002304
:10A09000CDE90423274BA0685A5D0092314604F0B5
:10A0A00040FA014600283FF454AE009A04A828F074
:10A0B0004DFFDDF8108000264FF6FF79324606A9E5
:10A0C00008A816F03DFABDF82020099B4A4510D09B
:10A0D00098450CDC0DD16068033D0368042D0BD856
:10A0E000DFE805F014181D2125000025BFE7013623
:10A0F000E4E74FF6FF72EEE71B6C9DF910109847EE
:10A10000606803684FF6FF71DB6B4BE6DB6C9DF814
:10A110001010F4E75B6CBDF910109847F0E71B6D69
:10A12000BDF81010F9E79B6C04999847E8E75B6D60
:10A13000FAE700BF7CB8050010B50C4611461A4678
:10A140004FF6FF739C4203D104483521FDF700FF11
:10A1500000682044BDE810400DF010B81F570500FE
:10A160002DE9704386B04CF6CD43ADF80830038935
:10A17000ADF80A308B68CDF81230C368CDF80E30D8
:10A180005A1CC2609DF81630CA680E4604464FF647
:10A19000FF7562F3020350217069ADF80C508DF821
:10A1A000163029F024F921898DF81700A94245D0ED
:10A1B0000F310DF10703012289B22046FFF7BCFFE2
:10A1C0009DF807502389A288DFF8CC8010351D4404
:10A1D0009DF81730ADB2103325811D44ADB2AA42AF
:10A1E0003EBF002222811D4604F10A0961892389AC
:10A1F0008B4212D8A94210D204314B4689B20222B6
:10A200002046FFF799FF6189A3888B420ED2002375
:10A21000A3604FF6FF73ADF80A3025894FF6FF783B
:10A22000454510D149211B48FDF792FE02314346B6
:10A23000022289B22046FEF745F8D7E70023ADF8A1
:10A240000A10A360E9E79DF81730502B01D94A2185
:10A25000E9E7766902AB102229462046FEF732F87C
:10A2600005F1100189B29DF8172033462046FEF70C
:10A2700029F8BDF80A10414507D0043104F108035C
:10A28000022289B22046FEF71DF8012006B0BDE883
:10A29000708300BF1F570500A6B8050070B52DEDEF
:10A2A000028B04460E461546B0EE408A08F00AFDC1
:10A2B00068B1002E0BDB2268964208DA63689D4283
:10A2C000BEBF02FB056504EB850585ED028ABDEC8A
:10A2D000028B70BD70B504460E46154608F0F2FCC0
:10A2E00060B121688E4209DA63689D4206DA01FB9B
:10A2F000056104EB810494ED020A70BD9FED010A33
:10A30000FBE700BF00000000002908B501DD002ABE
:10A3100003DC0023C0E9003308BD02FB01F3202B5E
:10A3200003DD03483621FDF713FEC0E90012F3E711
:10A330005B5A050038B50023C0E9003304460D46DA
:10A34000D1E90012FFF7E0FF204608F0BBFC48B15E
:10A35000D4E900325A43920005F1080104F10800E3
:10A3600028F0F4FD204638BD38B504460D46D1E945
:10A370000012FFF7C9FF204608F0A4FC48B1D4E959
:10A3800000325A43920005F1080104F1080028F058
:10A39000DDFD204638BD10B50446FFF7B5FF204669
:10A3A00008F090FC50B1D4E900325A4304F108009F
:10A3B0009200BDE81040002128F0F0BD10BD10B59E
:10A3C0000021C0E9001104468022083028F0E6FD93
:10A3D000204610BD2DE9704F2DED028B0646C8B00A
:10A3E00008460C4608F06EFC002842D0D4E9005321
:10A3F0009D423ED1012D40F3FB80214604A8FFF78A
:10A4000099FF26A8FFF7DBFF26A82A462946FFF773
:10A41000C2FF26A808F056FC78BBDFED888A00242E
:10A42000AC4200F00181049B03FB044303F10209E9
:10A4300004F1010804ABC34603EB890A9AED000A54
:10A4400026F0CEFFB4EEE80AF1EE10FA03D55D4532
:10A450009AED000A1CD104AB03EB890999ED008A3F
:10A46000B0EE480A26F0BCFFB4EEE80AF1EE10FAAE
:10A4700058D53046FFF7A3FFDAE06A1C9200294660
:10A4800028AB4FF07E500139C7D318601344FAE768
:10A49000049B04AA03FB0B4302EB8303D3ED027A74
:10A4A00030EE270A26F09CFFB0EE408A9AED000AB3
:10A4B00026F096FFB4EEC08AF1EE10FA2FDD049B71
:10A4C00003FB0B4203FB044304A90232023301EBFA
:10A4D000820201EB83032146F3EC017AB2EC017AAC
:10A4E000013177EE877A8D4243ED017AF4D1269BD4
:10A4F00003FB0BF2634326A90232023301EB820213
:10A5000001EB830300218D4209D0F3EC017AB2EC18
:10A51000017A77EE877A013143ED017AF3E70BF1A7
:10A52000010B8BE7DDF810E00EFB0481023104AB78
:10A5300003EB81030193019A43469D4207D0B2EC9D
:10A54000017AC7EE087A013342ED017AF5E7DDF8CA
:10A55000989009FB04F026AA023002EB80008446A2
:10A560000022BCEC017AC7EE087A013293424CED2E
:10A57000017AF6D14FEA8902039226AA11464FEAE0
:10A580008E02029204AA02EB840E4FF0000C644586
:10A5900024D09EED027ADDF804B00EF10C0AC1461B
:10A5A0004B450AD0FBEC016AFAEC017AE6EEC77A79
:10A5B00009F101094AED017AF2E701F1080A83463F
:10A5C0004FF00009FBEC016AFAEC017AE6EEC77A7B
:10A5D00009F101094B454AED017AF3D1039A0CF1D7
:10A5E000010C1144029A63459644D0D1444617E7C2
:10A5F0007FF43FAF002211462046FFF76BFEB5EE19
:10A60000400AF1EE10FA3FF434AF214626A8FFF7D6
:10A6100091FE002211462046FFF75CFEB7EE007A5D
:10A62000C7EE007ACDED287A26A93046FFF782FEE4
:10A63000304648B0BDEC028BBDE8708F6F12833A94
:10A640002DE97F4F0C4605461646FFF7B8FE20461B
:10A6500008F038FB002847D0226873689A4243D13B
:10A66000284662683168FFF74FFE63689FED207AE5
:10A67000019305F1080B0020019B834234DD236820
:10A68000009303FB00F10231324604EB8103039394
:10A6900052F8083B99000291DC464FF0000E7345DA
:10A6A0001CDDDDF80CA0ACEC017A91464FF00008FF
:10A6B000009988450EDAD9ED006ABAEC016A5CEDC2
:10A6C000017A0299E6EE267A894408F101084CEDF8
:10A6D000017AEDE70EF1010E0432E0E723EAE373BD
:10A6E0000BEB830B0130C7E7284604B0BDE8708F41
:10A6F00000000000002870B5B4BF4FF0FF360126FF
:10A700000D1EB8BF764228F0B7FA0446284628F056
:10A71000B3FA012884BF04EB5004B4FBF0F404FB4B
:10A7200006F070BD2DE9704390F81780037D064652
:10A730000D46144648EA0308052957D8DFE801F01A
:10A740001F03335A718B037853B380215820FEF7CF
:10A75000E2FC4FF0B00900215C20FEF7DCFC3F2C4E
:10A7600004D9424901201BF0D7FE2C4621465B202C
:10A77000FEF7D1FC20215E20FEF7CDFC4D46F37D97
:10A780003BB910211520FEF7C6FCF37D002B08BF56
:10A79000A84641461020FEF7BEFC0120BDE87083AC
:10A7A0004FF01009D7E7037813B382215820FEF742
:10A7B000B2FC02215920FEF7AEFC00215A20FEF720
:10A7C000AAFC80215B20FEF7A6FC08215E20FEF794
:10A7D000A2FC072C04D9264901201BF09DFE002471
:10A7E000210101F0F0015A20FEF795FC3025C6E763
:10A7F0000221DBE7037893B182215820FEF78BFC1E
:10A8000021465920FEF787FC00215A20FEF783FCE1
:10A8100000215B20FEF77FFC40215E20E4E702215F
:10A82000EBE703781BB180215820FEF774FC002170
:10A830005C20FEF770FC10215E20FEF76CFC072CFC
:10A8400004D90C4901201BF067FE012444F00801E3
:10A85000C9B25D20C8E700215820FEF75CFC00214A
:10A860005E20FEF758FC454689E700BF665A0500A2
:10A87000AD5A0500E95A05002DE97741884616468C
:10A880001D46012200230DF107015A208DF80730E3
:10A890008DF806308DF80530FEF72CFC18B9002035
:10A8A00003B0BDE8708101220DF106015920FEF7C9
:10A8B00021FC0028F3D001220DF105015820FEF7FC
:10A8C00019FC0028EBD09DF80740089A230988F866
:10A8D00000309DF80630C4F3810403F01F03347088
:10A8E0002B709DF8053003F00E031370D8E70000BD
:10A8F00043786BB9837D402B0DD0602B0ED0DFEDFC
:10A90000097A9FED090A202B08BFB0EE670A70474D
:10A910009FED060A70479FED060A70479FED050AF6
:10A92000704700BF4F76EF3C4F766F3C9A99193EC7
:10A930000392333D65646F3D2DE97F4343790446BF
:10A9400023B966494FF4FE701FF0FAFEDFF88C91D0
:10A950000126A57863799D4200F0BE80012D32D09A
:10A96000637803226BB160212046FEF7E4FB20B13F
:10A9700000210A20FEF7CFFB28B9002004B0BDE873
:10A9800070832221F0E700210D20FEF7C4FB002890
:10A99000F3D000210D20FEF7BEFB0028EDD00021F2
:10A9A0001120FEF7B8FB0028E7D00023E3754FF431
:10A9B0008053238380232279E178A3762046FFF712
:10A9C000B1FEA670C5E7022B75D1A37CEBB9637C01
:10A9D000002B65D1617E1520FEF79DFB20B3A17E83
:10A9E0001620FEF798FBF8B1E17D237D1020194376
:10A9F000FEF791FBC0B12378002B5AD0A17C01B1A6
:10AA000009211A20FEF787FB0EE06278002A3FD06A
:10AA10001C2260212046FEF78EFB28B168212046CB
:10AA2000FEF7E6FB0028D2D1A38B4FF00D08B3FB55
:10AA3000F8F3082B28BF08231946E37C4B4303EBAC
:10AA400043038DF809301B0A8DF80A30637C002B14
:10AA5000A37C8DF80C30237E4FF0060243EA0203FC
:10AA60008DF80D304FF0000318BF092502A9CDE97C
:10AA7000003318468DF808208DF80B5002F0BCFD0D
:10AA800008214046FEF747FB6379A370A67160E793
:10AA900022212046FEF74FFB0028C5D02821BEE723
:10AAA000E17D637D11201943FEF735FB002891D12C
:10AAB000BAE74921A5E7032B08D1217D102041F0F9
:10AAC0001001FEF728FB20215E20DBE749464FF40A
:10AAD00009701FF035FED7E701204FE72D5B050019
:10AAE00030B50446807F85B010B903F0EBF9A0774C
:10AAF000002301220DF10F010F208DF80F30FEF71A
:10AB0000F9FA08B9002020E09DF80F30A3F16A019E
:10AB10004A424A4122706270A3F16902012A01D9B6
:10AB2000452BEFD1A378012B11D9237833B9A27D1E
:10AB300021212046FEF7FFFA0028E3D0A378012B5D
:10AB400040F082802046FFF7F7FE05B030BD237D40
:10AB5000FF2B05D10C233F49237501201BF0DCFCA2
:10AB6000637DFF2B05D10C233B49637501201BF04E
:10AB7000D3FCA37DFF2B05D100233849A375012009
:10AB80001BF0CAFC237EFF2B02D0E37DFF2B0AD1F2
:10AB90000023E3754FF48053238380233049A37649
:10ABA00001201BF0B9FCE17819BB11200191FEF7DF
:10ABB000B2FA019905461520FEF7ADFA2840C5B254
:10ABC00001211220FEF7A7FA002D9BD0002899D072
:10ABD0004FF4FA7501220DF10F011046FEF78AFAC3
:10ABE00000288FD09DF80F30DB0702D5013DF1D151
:10ABF00088E7022020F0A2FA74211220FEF78BFAD7
:10AC000000283FF47FAF2378E3B104211320FEF73F
:10AC100082FA00283FF476AF01211520FEF77BFA77
:10AC200000283FF46FAF80211620FEF774FA002849
:10AC30003FF468AF00210E20FEF76DFA00287FF484
:10AC400074AF5FE70521E1E70023A370012363717F
:10AC500078E700BFA05B0500C35B0500E25B050071
:10AC6000045C05002DE97F4F0446154608469B46C7
:10AC70000378012B01D0042B0CD12268012B0CBFCF
:10AC800081884188D268204690470028F0D104B0DE
:10AC9000BDE8708F032B5DD1236841885B69204636
:10ACA00098478246002841D014F0CEFE0190002340
:10ACB0002B6099469846019B994540D023683AF805
:10ACC00019101B69204698470646002835D023688E
:10ACD0004188DB6820469847014670B333799B076B
:10ACE00026D50DF10B0303AA2046FFF7BBFF00B9E1
:10ACF0000390039A0AB39DF80B303079984538BF1A
:10AD00009846C007C3F1000106D4013A1A4401EA8B
:10AD1000030002440A4003922A68013B1344039A49
:10AD20000B4013442B6009F10109C4E70190BEE711
:10AD3000042303938DF80B30DBE70020A7E72B6893
:10AD4000013B4344C8F1000213402B6001208BF803
:10AD500000809CE75A462946FEF7A8FF97E70000C7
:10AD60002DE9704F2DED028B04468EB08A46914638
:10AD70001D4616464FF6FF783378012B0ED120681A
:10AD8000B1880368DB68984710B94FF0000937E0D5
:10AD9000B6F80280B6F804A00646EDE7042BF4D816
:10ADA00001A252F823F000BFBDAD02008BAD02003E
:10ADB00043AF020019B00200C7B10200B378013BF3
:10ADC0000B2BE2D8DFE803F00622262A3E4253642A
:10ADD000787C9094606803689B680AA99847A36888
:10ADE00001225868294603F0B2F901232968A068B6
:10ADF0000AAA03F0B5F92B6801332B604FF0010963
:10AE000048460EB0BDEC028BBDE8708F60680368E9
:10AE1000DB68E2E7606803681B69DEE76068036877
:10AE20005B690AA99847A36802225868294603F07B
:10AE30008EF902232968A0680AAA03F091F92B6809
:10AE40000233DAE7606803689B69EAE760680368D1
:10AE50000AA9DB699847A36829465868042203F0C9
:10AE600076F9A0680AAA294603F084F9C6E7606863
:10AE700003680AA91B6A9847A368294658680422F0
:10AE800003F065F9A0680AAA294603F073F9B5E74B
:10AE9000606803685B6A0AA99847A3680822586833
:10AEA000294603F054F908232968A0680AAA03F088
:10AEB00057F92B680833A0E7606803689B6AEAE7E4
:10AEC000606803680AA9DB6A9847A3680422586887
:10AED000294603F03CF904232968A0680AAA03F074
:10AEE0003FF92B68043388E7606803681B6BD2E77F
:10AEF0006068036809A95B6B9847814600283FF4A6
:10AF00007FAF099828F033FA431C1A46A0680193D2
:10AF1000012103F039F90646A068027C4068B21AA4
:10AF20000A922946042203F012F9A0680AAA2946C7
:10AF300003F020F9019B099AA068314603F010F94B
:10AF40005EE7206871880368DB68984781460028BF
:10AF50003FF41BAF01460DF11B032068768808AA59
:10AF6000FFF780FE00283FF410AF6068036807AA6F
:10AF70001B6D4146984700283FF407AFBDF81C30D1
:10AF8000089A9DF81B10A0685A4303F0FDF8D4F806
:10AF900008C009909CF810302946C31A0422DCF836
:10AFA00004000A9303F0D3F82968A068022307AAD3
:10AFB00003F0D6F82B6802332B60A3682946586843
:10AFC000042203F0C4F82946A0680AAA03F0D2F8C4
:10AFD0000025BDF81C106068AAB29142036816D91A
:10AFE0009B6D1146984700283FF4CFAE09AB4A4607
:10AFF00031462046FFF7B4FE00283FF4C6AE606835
:10B000000368DB6D984701350028E2D1BDE65B6D32
:10B01000414698478146F3E66068036841461B6CE9
:10B02000984700283FF4B1AE20680DF1190307AA34
:10B030004946FFF717FE00283FF4A7AEA3689DF826
:10B0400019205868294603F082F82068718803683F
:10B050005B6998470390002800F0B18014F0F4FC7D
:10B060004FF0000B0590059B5B4500F0A880206821
:10B07000039A036832F81B101B6998470190002857
:10B080003FF483AE2068019A03685188DB689847D3
:10B09000814600283FF479AE019B5B88014608EEAB
:10B0A000103A20680DF11A0308AAFFF7DBFD00280B
:10B0B0003FF46BAE019B1B799A075BBF089A049221
:10B0C0004FF0000A04225DBF9DF81AA008928DF887
:10B0D0001A20CDF810A0DE0748D4A3689DF81A20E6
:10B0E0005868294603F033F82B68029301332B602C
:10B0F000019B60681A79036801999B6C09881E4658
:10B1000002F001020DF11B03B04700283FF43DAEF1
:10B11000019B9DF81B201B796AB3980729D45146DF
:10B12000049AA06803F030F8A368099093F810A07F
:10B130000422A0EB0A0A2946586803F008F8A06820
:10B14000CDF828A00AAA294603F014F809AB4A460C
:10B1500018EE101A2046FFF703FE814600283FF440
:10B160004FAE019B1B79DB070AD510E00023029349
:10B17000BEE72B46EBE7D9073FF507AE9A0712D497
:10B180000299A06801230DF11B0202F0E9FF60683B
:10B19000019A03681188DB6C984700283FF4F5ADED
:10B1A0000BF1010B5FE7A3689DF81A205868294648
:10B1B00002F0CDFF2B68089A13442B60D1E760683A
:10B1C00003685B6C24E7206871880368DB68984734
:10B1D000814600283FF4D9AD23680D4A6068ADF878
:10B1E00030A0CDE90A2303680AAA9B6B4146984721
:10B1F00000283FF4CAAD71882B464A462046FFF727
:10B20000AFFD00283FF4C1AD60680368DB6BFFE66B
:10B21000DCBB050073B50D461646044620B924482C
:10B2200041F25F211FF055FA19F09AF994F858305D
:10B2300002229642DBB284F8582005D0032E01D0BA
:10B24000616D0D43656502E0626D01326265012B3F
:10B2500029D1211D0846019119F0C8F9154AE36A60
:10B2600010680199834288BF1360134A142000FBC1
:10B27000032019F0CBF9A36A23B10D4841F29F21B5
:10B280001FF027FA19F06EFA0C4BE26A1B68DB6AB2
:10B290009A4208D90A4B4FF080525A6040BFBFF320
:10B2A0004F8FBFF36F8F19F047F9012002B070BDC7
:10B2B000305C050050310020243000202030002078
:10B2C00000ED00E04368C0689978012202FA01F1BC
:10B2D000FFF7A0BF70B51D4C06460D4619F040F9AA
:10B2E000236893F85830022B13D023685A6D5A659F
:10B2F0002368012183F858105DB1284619F0D8F968
:10B30000134B4FF080525A6040BFBFF34F8FBFF3D3
:10B310006F8F19F011F919F023F923685B6D336011
:10B32000236893F85830022B08BF23684FF00005BC
:10B3300004BF5A6D5D6523684FF0000208BF012508
:10B3400083F8582019F0F8F8284670BD2030002006
:10B3500000ED00E02DE970418FB00023019005461B
:10B36000007BADF809308DF80B308DF808101BF01C
:10B37000F5FB01AE0446804640B1304619F059F85D
:10B380009DF80A8040460FB0BDE87081274BCDE99B
:10B390000636274B06A9CDE90830287B1BF0B2FB07
:10B3A00005460028EED021461BF09EF8214BCDE942
:10B3B0000A36214B2046CDE90C341BF0CFFB58B3A5
:10B3C00016F04CFD80461AF069FFD8F81C30039344
:10B3D000DB688DF810400646059303A814F03FFD86
:10B3E00030B14269964207D190F860400F2C07D1E6
:10B3F00028461BF039FBC3E703A814F023FDECE754
:10B4000016F02CFD214615F061F90028F0D00AA9AC
:10B410000C3016F0D3FDEBE70AA818F0AEFE0028BA
:10B42000E6D103201AF0FAF9F6E700BFA8BA050042
:10B430003344040094BA0500B741040070B51546C2
:10B4400086B00C4609B19E2A03D91F4966201FF019
:10B4500077F91E4E31884FF6FF72914229D01022A3
:10B46000002102A8ADF8065027F098FD184B1B8864
:10B47000ADF8083001238DF80A300023ADF80C3008
:10B480000DF10603CDE90434308802A9FEF79CFAD9
:10B490001328024603D102201AF0C0F9F4E710B9CC
:10B4A000012006B070BD0B4901201BF035F80020CB
:10B4B000F7E7094B09480A49C01AC008000440F0E0
:10B4C00004001FF011FCF2E7385C05001C2A002084
:10B4D000003000208D5C0500146506005C650600E8
:10B4E000EDC805002DE9704F2DED028BAEB008EED2
:10B4F000102A06460F9105931CF01AF80F9B13F4BF
:10B50000803F336800F001089B6818BF4FF00108C6
:10B5100004463046984768F30004BDF83C30079372
:10B520000694C4F303130DF15C081AAC0E93019456
:10B53000DDE90623CDF800804FF00301834616F0C5
:10B5400031F9C828109040F02881069BD8073ED4D6
:10B550002146584615F059FB0446002837D1994B2F
:10B56000269326AA0421404614F0E2FD00287AD052
:10B57000214626A814F07EFC0646002873D018EE5B
:10B58000103A9B78D90748BF18EE103A41884CBF53
:10B590001C884FF6FF74A14255D0002C53D04FF6B3
:10B5A000FF73994249D1884901201AF0B5FF17A8C5
:10B5B00014F004FEBDF85C308449024601201AF004
:10B5C000ABFF73888249224601201AF0A5FFBDF81F
:10B5D00072300993099A4FF6FF739A4200F0DD80AA
:10B5E000DBF8140012F0CAFD059B5B68002B6DD0E0
:10B5F000199B9B785B0969D0DBF8401026A80831BD
:10B6000015F0CFF8269BBDF89C20DB899A425DD0CF
:10B6100026A815F09EF8079AC388934252D10830A5
:10B6200000236FF0004250F8041B9142DCB226D098
:10B630000133042BF7D11C4622E0224626A814F041
:10B6400081FC0028AFD0199B9B7826A85B09089342
:10B6500014F042FC089B0090059A042126A814F0DF
:10B6600091FC0028B3D1584901201AF055FF4046FB
:10B6700014F0A4FDBDF85C3054490246A4E72CB395
:10B68000059B1B799C4221D8059B0DF1740903F1A0
:10B690000808002640461CF03BFE0136F3B29C42EF
:10B6A00049F8040B08F10808F4D8002C08BF01245D
:10B6B0001DAB6FF00042E1B204291DD043F82420F5
:10B6C0000134F8E726A815F057F89BE700230D93FF
:10B6D000079B08930E9B0B9300230A930F230C9355
:10B6E0000999DBF83C0015F015F8814630B940F2B5
:10B6F000FE213848FCF72CFC0123E8E7023015F066
:10B7000015F8C0F3031308EE903AB9F80030099326
:10B71000059B5B680446C0F307264FEA1048002BE0
:10B720006AD00D9B002B67D0DBF8401011900DF113
:10B7300098090831484615F034F824F00F031293A5
:10B74000269BBDF89C10DB89994255D0484615F0E0
:10B7500000F8119B129A016803F00F031A4311922B
:10B76000129A134321F0FF01139323F0FF03994230
:10B7700023D1C388079A93421FD1DBF840001DAB49
:10B78000214615F0BCF948BB099A4FF6FF739A425F
:10B79000A6D1DBF8140012F0E5FC109BADF8983050
:10B7A000002300930C490F9BA52226A81BF0C7FE7F
:10B7B0002EB0BDEC028BBDE8708F484614F0DCFF64
:10B7C000BEE700BF70BB05009B5C0500C25C0500C6
:10B7D0008D5705003C570500335D05000378DB07F6
:10B7E000D2D50379456803F00F021B090B93437907
:10B7F0000A93C3880C920893DBF8140012F0B2FC91
:10B80000002E68D0DBF81880314608F10C0003F0F8
:10B810003DFB437B092B07D018EE100AFCF764FBB5
:10B820000599404603F058FF0DF185001BF02CFAF6
:10B8300016AB02930DF1520301930DF1840915AB80
:10B8400000934A4614AB3146404603F053FFC828E4
:10B8500036D1BDF852300C99ADF8A8309DF8B03013
:10B860004C4A16982D9461F303030B99CDE92628D1
:10B8700061F3071314AA28928DF8B030159A0A9B29
:10B8800029928DF8B130089BADF8B23003689E68FC
:10B890000C9B63F3030A0A9B61F3071A63F30F2AF5
:10B8A000089B63F31F4A26AB00220193059B2B9252
:10B8B000CDE902920093524618EE103A2146B04765
:10B8C000099A4FF6FF739A423FF467AFDBF8140012
:10B8D00012F054FC04E7069B0E9AE6B262F30713DB
:10B8E0000693734013F0F00902D12B4B1B786BB316
:10B8F00018EE901A584614F001FF036806F001068E
:10B90000D3F82080002E40D001230C9A019362F3DB
:10B9100003050B9A059B009362F307150A9A62F3DD
:10B920000F25089A62F31F4518EE103A2A4624F4B0
:10B930007F41C0471BF0C3FA0028C1D1002EBFD100
:10B94000584616F043FC4FF45771D2E6414658462C
:10B9500015F04AFA98B103685C6A0C9B63F303051F
:10B960000B9B63F307150A9B63F30F25089B63F397
:10B970001F4518EE102A059B2946A047A0E7074956
:10B98000424601201AF0C8FD9AE7B9FA89F35B092B
:10B99000BBE700BFA8BB0500612E0020CD5C050001
:10B9A00007B5054B6A46CDE90031044B0449FFF762
:10B9B00099FD03B05DF804FB09000300342E00205C
:10B9C0000041010007B5064B6A46CDE90031054B41
:10B9D0004FF49F31FFF786FD03B05DF804FB00BF15
:10B9E000013E0300342E002007B54FF00313CDE9CC
:10B9F00000316A46034B0449FFF774FD03B05DF85C
:10BA000004FB00BF342E00200132010007B5054BB6
:10BA1000CDE90032044B6A46FFF764FD03B05DF8E0
:10BA200004FB00BF01000300342E00202DE9704FFD
:10BA300086B00C4605464FEA114816F00FFA064646
:10BA400028461BF0DFF92F4B1B78C4F30729002B86
:10BA500048D0B9F1000F04D040F216412A48FCF753
:10BA600077FA69F30F24C0F30313424668F31F44C7
:10BA700005464FEA104A4FF008013046039315F08F
:10BA80007BFE04F00F020F2A1AD0706912F076FBC9
:10BA9000039BD6F840B063F3071569F30F246AF3EC
:10BAA0001F4568F31F4429462246584615F055F8AD
:10BAB000014610B1584614F038FA706912F052FB82
:10BAC0005146304615F090F910B940F24141C5E7B2
:10BAD00003686FF30F2468F31F441D692246C823CF
